:020000040800F2
:100000000000022075640008890E00088B0E0008AD
:100010008D0E00088F0E0008910E000800000000F1
:10002000000000000000000000000000930E000827
:10003000950E000800000000970E0008290A00082D
:10004000B9640008B9640008B9640008B96400081C
:10005000B9640008B9640008B9640008B96400080C
:10006000B9640008B9640008B9640008B9640008FC
:10007000B9640008B9640008B9640008B9640008EC
:10008000B9640008B9640008B9640008B9640008DC
:10009000B9640008B9640008B9640008450E000896
:1000A000B9640008B9640008B9640008B9640008BC
:1000B000B9640008B9640008B9640008B9640008AC
:1000C000B9640008B9640008B9640008B96400089C
:1000D000B9640008B9640008B9640008B96400088C
:1000E000B9640008B9640008990E0008B9640008F2
:1000F000B9640008B9640008B9640008B96400086C
:10010000B9640008A9420008B9640008B96400088D
:10011000B9640008B9640008B9640008B96400084B
:100120000D160008B9640008B9640008AD42000863
:10013000B9640008B9640008B9640008B96400082B
:10014000B9640008B9640008B9640008C90E000861
:10015000B9640008B9640008B9640008B96400080B
:10016000B9640008B9640008B9640008B9640008FB
:10017000B9640008B9640008B9640008B9640008EB
:08018000B9640008B96400082D
:1001C00010B5054C237833B9044B13B10448AFF391
:1001D00000800123237010BDC8050020000000002E
:1001E000BC640008084B10B51BB108490848AFF3C0
:1001F00000800848036803B910BD074B002BFBD0F3
:10020000BDE81040184700BF00000000CC050020EA
:10021000BC640008C405002000000000844641EAD8
:10022000000313F003036DD1403A41D351F8043B6E
:1002300040F8043B51F8043B40F8043B51F8043BC0
:1002400040F8043B51F8043B40F8043B51F8043BB0
:1002500040F8043B51F8043B40F8043B51F8043BA0
:1002600040F8043B51F8043B40F8043B51F8043B90
:1002700040F8043B51F8043B40F8043B51F8043B80
:1002800040F8043B51F8043B40F8043B51F8043B70
:1002900040F8043B51F8043B40F8043B51F8043B60
:1002A00040F8043B51F8043B40F8043B403ABDD2CF
:1002B000303211D351F8043B40F8043B51F8043B71
:1002C00040F8043B51F8043B40F8043B51F8043B30
:1002D00040F8043B103AEDD20C3205D351F8043B00
:1002E00040F8043B043AF9D2043208D0D2071CBFCC
:1002F00011F8013B00F8013B01D30B8803806046F5
:10030000704700BF082A13D38B078DD010F003036A
:100310008AD0C3F10403D21ADB071CBF11F8013BDA
:1003200000F8013B80D331F8023B20F8023B7BE729
:10033000043AD9D3013A11F8013B00F8013BF9D254
:100340000B7803704B7843708B78837060467047EE
:10035000000000000000000000000000000000009D
:10036000000000000000000000000000000000008D
:10037000000000000000000000000000000000007D
:1003800090F800F06DE9024520F007016FF0000CD5
:1003900010F0070491F820F040F049804FF000047D
:1003A0006FF00700D1E9002391F840F000F1080058
:1003B00082FA4CF2A4FA8CF283FA4CF3A2FA8CF390
:1003C0004BBBD1E9022382FA4CF200F10800A4FAF7
:1003D0008CF283FA4CF3A2FA8CF3E3B9D1E904234B
:1003E00082FA4CF200F10800A4FA8CF283FA4CF382
:1003F000A2FA8CF37BB9D1E9062301F1200182FA3C
:100400004CF200F10800A4FA8CF283FA4CF3A2FA41
:100410008CF3002BC6D0002A04BF04301A4612BA4F
:10042000B2FA82F2FDE8024500EBD2007047D1E952
:10043000002304F00305C4F100004FEAC50514F0E1
:10044000040F91F840F00CFA05F562EA05021CBFB2
:1004500063EA050362464FF00004A9E753B94AB9BD
:10046000002908BF00281CBF4FF0FF314FF0FF30BC
:1004700000F07EB9ADF1080C6DE904CE00F006F88D
:10048000DDF804E0DDE9022304B070472DE9F04710
:100490008C460E460446089D002B50D18A421746D2
:1004A0006CD9B2FA82FEBEF1000F0BD0CEF120045F
:1004B00020FA04F401FA0EF644EA060C02FA0EF7EA
:1004C00000FA0EF44FEA1749220CBCFBF9F01FFAB0
:1004D00087F809FB10C642EA064600FB08F3B34260
:1004E00009D9F61900F1FF3280F02281B34240F2BF
:1004F0001F8102383E44F61AA2B2B6FBF9F309FB9B
:10050000136642EA064403FB08F8A04509D9E4193A
:1005100003F1FF3280F00A81A04540F20781023BDF
:100520003C44C8EB040443EA00400021002D62D0A3
:1005300024FA0EF400232C606B60BDE8F0878B4238
:1005400007D9002D55D0002185E841000846BDE8B7
:10055000F087B3FA83F1002940F09080B34202D3D0
:10056000824200F2F880841A66EB03060120B4464A
:10057000002D40D085E81010BDE8F08712B90127A2
:10058000B7FBF2F7B7FA87FEBEF1000F35D1F31BC8
:100590004FEA17481FFA87FC0121B3FBF8F0220C41
:1005A00008FB103642EA06460CFB00F3B34207D9BB
:1005B000F61900F1FF3202D2B34200F2CE801046AB
:1005C000F61AA2B2B6FBF8F308FB136642EA064439
:1005D0000CFB03FCA44507D9E41903F1FF3202D256
:1005E000A44500F2B5801346CCEB040443EA004076
:1005F0009CE729462846BDE8F087CEF1200106FA9F
:100600000EF307FA0EF720FA01F94FEA1748CE4029
:1006100049EA0309B6FBF8FA4FEA194408FB1A66DF
:100620001FFA87FC44EA06430AFB0CF29A4200FADE
:100630000EF40AD9DB190AF1FF3180F087809A4263
:1006400040F28480AAF1020A3B449B1A1FFA89F9FE
:10065000B3FBF8F108FB113349EA034301FB0CF645
:100660009E4207D9DB1901F1FF326BD29E4269D954
:1006700002393B449B1B41EA0A418EE7C1F1200E3F
:1006800022FA0EF48B40234320FA0EF706FA01F407
:100690004FEA134C26FA0EF63C43B6FBFCF9270C46
:1006A0000CFB19661FFA83F847EA064609FB08F7B0
:1006B000B74202FA01F200FA01FA08D9F61809F174
:1006C000FF3041D2B7423FD9A9F102091E44F61BBF
:1006D000A0B2B6FBFCF40CFB146640EA064704FB30
:1006E00008F8B84507D9FF1804F1FF3028D2B845FB
:1006F00026D9023C1F4444EA0940C8EB0707A0FB87
:1007000002894F4544464E4614D329D065B3BAEB0F
:10071000040367EB060707FA0EFECB40CF404EEA14
:10072000030385E888000021BDE8F0871346F8E65A
:100730001046E0E6B8EB020469EB03060138E5E792
:100740000446D8E7114695E78146C0E78A467CE72C
:10075000023B3C4448E708460AE702383E442FE79C
:10076000C245E7D33E46D1E72946BDE8F08700BF42
:10077000704700BF70B4840746D0541E002A41D091
:10078000CDB2034602E0621EE4B3144603F8015BF7
:100790009A07F8D1032C2ED9CDB245EA05250F2CA6
:1007A00045EA054519D903F110022646103E0F2EE1
:1007B00042F8105C42F80C5C42F8085C42F8045CB9
:1007C00002F11002F2D8A4F1100222F00F0204F09C
:1007D0000F041032032C13440DD91E462246043A4E
:1007E000032A46F8045BFAD8221F22F003020432DF
:1007F000134404F003042CB1C9B21C4403F8011BD8
:10080000A342FBD170BC704714460346C2E700BF49
:10081000024B13B1024800F005B870470000000019
:1008200031080008002301461A46184600F014B8A3
:1008300038B5074D074C2C1BA41005D0013C55F8CA
:10084000043D9847002CF9D1BDE8384005F03CBE86
:10085000802403087C2403082DE9F047254C2568F3
:10086000D5F848410646884692469946C4B3606822
:100870001F2817DC431C76B104EB80050122C5F864
:1008800088A0D4F8881182401143022EC4F8881140
:10089000C5F808911ED00230636044F82080002023
:1008A000BDE8F087144B03B34FF4C870AFF300807A
:1008B0000446D0B1D5F84831002780E88800C5F853
:1008C000484138460123C4F88871C4F88C71002E61
:1008D000E1D0D1E7D4F88C110A43C4F88C21DAE7CF
:1008E00005F5A674C5F84841C1E74FF0FF30BDE8F3
:1008F000F08700BFD46400080000000070B5012339
:10090000B1FBF3F4944201D35343F9E77BB1B1FB5C
:10091000F3F40568092C03FB141105F10106CCBFA3
:1009200037343034066093FBF2F32C70EEE770BD81
:100930002DE9F34102AD0C4645F8040D1346064679
:100940002D272278002A4FD0252A47D16278642AA1
:100950001DD00AD8582A37D0632A11D0252A3BD176
:100960000199481C01900A7036E0732A1BD002D806
:10097000692A0CD030E0752A22D0782A24D02BE0C6
:10098000019A511C019119681170043324E019680F
:10099000002903F1040804DA019B5A1C0192494220
:1009A0001F700A2214E0191D1B681A7832B1019ACF
:1009B000501C019013F8010B1070F6E70B460BE08A
:1009C00003F104080A2202E003F104081022196866
:1009D0002846FFF793FF43460234B2E70199481CCB
:1009E000019001340A70ACE7019B1A700198801BDA
:1009F00002B0BDE8F0810EB403B503AA52F8041B9F
:100A00000192FFF795FF02B05DF804EB03B0704769
:100A100082B0044B0190019A1A601A68002AFCD136
:100A200002B07047E00B0020054B1A6812B11A683B
:100A3000013A1A60034A136801331360704700BF1C
:100A4000E00B00202804002013B5114C01210220E6
:100A500005F098FB4FF44073022200938DF80520B7
:100A60000123002220464FF480718DF804308DF868
:100A700006208DF8073005F06BFA20464FF4007120
:100A800005F066FA6946204605F020FA02B010BD6E
:100A900000040240F7B5194F0121022005F072FB56
:100AA0000124202102260025384600918DF80440BB
:100AB0008DF807408DF805608DF8065005F048FA6E
:100AC0006946384605F002FA2146042005F05AFB33
:100AD0008DF804408DF80740094C8DF805604FF4FF
:100AE0000051204600918DF8065005F033FA694612
:100AF000204605F0EBF903B0F0BD00BF0004024052
:100B00000008024030B5012187B0042005F03AFB0F
:100B100001214FF4804005F059FB06A9402500242F
:100B200041F8085D12488DF814408DF8174005F023
:100B3000CDF90621022005F009FC029510230125BC
:100B400002A88DF80D308DF80C408DF80E5005F090
:100B500069F9172301A88DF804308DF805508DF838
:100B600006408DF8075004F08DFF07B030BD00BF80
:100B70000008024030B5012187B0042005F002FBD7
:100B800001214FF4804005F021FB06A980250024B7
:100B900041F8085D12488DF814408DF8174005F0B3
:100BA00095F90721022005F0D1FB8DF80C401023A8
:100BB000012402A88DF80D3002958DF80E4005F045
:100BC00031F9172301A88DF804308DF805408DF810
:100BD00006408DF8074004F055FF07B030BD00BF58
:100BE000000802401FB51F4B1F4A009301211F4BF5
:100BF0001F4804F070FC42F21070FFF709FFFFF786
:100C000023FFFFF77FFFFFF7B5FF42F21070FFF7FA
:100C1000FFFEFFF73FFF42F21070FFF7F9FE00F012
:100C200071FA00F0B9FA42F21070FFF7F1FE00F02D
:100C3000D7FC42F21070FFF7EBFE002303930D4B3D
:100C40000D481B6803F400330393039B4FF480713A
:100C500013B105F07FF901E005F07AF905B05DF810
:100C600004FB00BF8C05002058050020FC04002078
:100C7000EC050020003802400004024030B55F4B14
:100C80005F4A604C1B68B3FBF4F3013B53605E4B5F
:100C9000F02183F8231000250723ADF5055D89B009
:100CA00095601360FFF79EFF284600F023FB00F0DD
:100CB00029FB2046FFF7ACFEFF2000F01BFB00F0F5
:100CC00021FB2046FFF7A4FE284600F013FB00F0AE
:100CD00019FB2046FFF79CFE0421032000F056FB81
:100CE000FF224A494A4800F0A9FB1921032000F0DD
:100CF0004DFBFF224549474800F0A0FB2D21032072
:100D000000F044FBFF224149434800F097FB00F00C
:100D1000F9FA2046FFF77CFE284600F0EBFA00F0D7
:100D2000F1FA0421032000F031FBFF2237493B4850
:100D30003B4C00F083FB1921032000F027FBFF222E
:100D40003249384800F07AFB2D21032000F01EFBC9
:100D5000FF222E49344800F071FB00F0D3FA334BE8
:100D600022681A60324B22681A600DF58950012200
:100D70003049103001F014FD0D2816D12A462946BD
:100D80002C4801F001FF58B901222A4901F008FD61
:100D90000DF5895001222749103001F001FD04E0D2
:100DA0004FF40071244805F0D5F80A22234943A8DE
:100DB00001F01EFDFF22002103A8FFF7DBFC4DF22E
:100DC000314322681E49009303A843F23903FFF719
:100DD00012FE03A8FFF7D4FA02AB024603A943A808
:100DE00001F0A8FD43A801F0C4FE002000F082FA43
:100DF00000F088FA0348FFF70BFEFEE72C04002002
:100E000010E000E040420F0000ED00E0AC050020E3
:100E1000D8640008E4640008ED640008F564000884
:100E200028040020006500080C650008E405002087
:100E3000E805002016650008000402401965000856
:100E40002E65000838B50F4C06254020257005F0AA
:100E500029F830B14020257005F032F8402005F027
:100E60001BF8802005F01EF838B10723802023707E
:100E700005F026F8802005F00FF81720BDE838406F
:100E800005F01EB8E40B00207047FEE7FEE7FEE722
:100E9000FEE770477047704710B5094CA37A4BB115
:100EA000084A136923F00603136100F013F8204683
:100EB00003F061FE4FF48020BDE8104005F000B85B
:100EC000EC05002000ED00E0014803F079BF00BF11
:100ED000EC050020374AD2F8883043F47003C2F89A
:100EE0008830354B1A68002142F001021A6099607F
:100EF0001A6822F0847222F480321A602F4A5A60F3
:100F00001A6882B022F480221A60D960009101919F
:100F10001A6842F480321A601A6802F400320192B0
:100F2000009A01320092019A1AB9009AB2F5A06FA4
:100F3000F2D1214B1B6813F4003318BF0123019336
:100F4000019B012B05D01B4B4FF000629A6002B051
:100F50007047194B1A491A6C42F080521A640A6899
:100F600042F440420A609A689A609A6842F40042E9
:100F70009A609A6842F4A0529A60124A5A601A68BB
:100F800042F080721A6019680B4A8901FBD50E4B3A
:100F900040F205611960936823F00303936093683E
:100FA00043F002039360936803F00C03082BFAD11B
:100FB000C9E700BF00ED00E0003802401030002417
:100FC0000070004008544007003C0240F0B5C16882
:100FD00085680668426805EB8103B400A3EC010A4A
:100FE0009FED0E0A1719043B9D4206D893ED007A37
:100FF000F2EC017AA7EE270AF5E72B19BA4206D2DE
:1010000033ED017AF2EC017AA7EE270AF6E74B1CE2
:101010009E4298BF0023C360F0BD00BF00000000E7
:1010200070B504460E4615464FF40031204605F0D3
:101030004BF80028F8D10121204605F015F80E499B
:10104000204605F034F80028F9D02A4631462046DB
:1010500005F022F835B90949204605F028F800289E
:10106000F9D070BD012D05D10549204605F01FF8C6
:101070000028F9D070BD00BF010003008200070006
:101080000200030010B5044605F00FF8034920469E
:1010900005F00DF80028F9D010BD00BF840007004E
:1010A000012104F0EDBF70B50446164600221D462E
:1010B000FFF7B6FF31462046FFF7E4FF20462946FA
:1010C000FFF7E0FF2046BDE87040FFF7E9BFF8B545
:1010D0000546174600221C46BDF81860FFF7A0FF22
:1010E00039462846FFF7CEFF2644B44205D014F80F
:1010F000011B2846FFF7C6FFF7E72846BDE8F84082
:10110000FFF7CEBF30B5012187B04FF4001005F0D6
:1011100051F80121022005F035F81D4DC023009340
:10112000022301248DF804306946032328468DF8F4
:1011300005308DF806408DF8074004F0C7FE2846BC
:101140000422062104F008FF28460422072104F0A7
:1011500003FF104B02930023ADF80C30ADF81030B4
:10116000A5F5D8354FF480634BF6FF72ADF8123019
:1011700002A94FF480432846ADF80E20ADF8143094
:1011800004F0FCFE2146284604F062FF07B030BDA3
:1011900000040240801A060010B5554CAE232046CC
:1011A00000227821FFF77FFF2046202300227821AC
:1011B000FFF779FF2046102300227821FFF773FF05
:1011C0002046B02300227821FFF76DFF2046C82378
:1011D00000227821FFF767FF00231A462046782176
:1011E000FFF761FF2046102300227821FFF75BFF05
:1011F0002046402300227821FFF755FF2046812317
:1012000000227821FFF74FFF2046FF23002278219C
:10121000FFF749FF2046A12300227821FFF743FF73
:101220002046A62300227821FFF73DFF2046A82371
:1012300000227821FFF737FF20463F230022782144
:10124000FFF731FF2046A42300227821FFF72BFF70
:101250002046D32300227821FFF725FF00231A46DA
:1012600020467821FFF71FFF2046D5230022782152
:10127000FFF719FF2046F02300227821FFF713FF24
:101280002046D92300227821FFF70DFF2046222394
:1012900000227821FFF707FF2046DA230022782179
:1012A000FFF701FF2046122300227821FFF7FBFE03
:1012B0002046DB2300227821FFF7F5FE204620237D
:1012C00000227821FFF7EFFE20468D2300227821AF
:1012D000FFF7E9FE2046142300227821FFF7E3FE02
:1012E0002046AF2300227821BDE81040FFF7DBBE87
:1012F0000054004001464FF480620148FFF73ABABB
:10130000E50B002013B50024A4F15003DBB200224A
:1013100078210F48FFF7C7FE00231A4678210C48B2
:10132000FFF7C1FE1023002278210948FFF7BBFE1A
:1013300080230093074B064803EBC4134022782117
:101340000134FFF7C4FE082CDED102B010BD00BF8F
:1013500000540040E50B00207F2813D83F2911D806
:10136000FF2A4FEAD10200EBC210074B4FF00102F7
:1013700001F0070102FA01F11A5C0CBF114322EAE5
:1013800001011954704700BFE50B0020024B188083
:10139000024B1980704700BFE60F0020E80F0020C5
:1013A0002DE9F04F0D4623499246B1F800B02A7856
:1013B00085B05A447F2A0446029137DC1E4AB2F8AF
:1013C00000906A784A443F2A30DCA0F120030026CE
:1013D00003936A78964222D2039B696802FB0362F8
:1013E00009EB060831F81230019300271FFA88F83C
:1013F0002A78974211D2019B03FA07F212F4004FA8
:101400000BEB07000ABFBAFA8AF25246520941466C
:1014100080B2FFF7A1FF0137EAE70136D9E72A7862
:101420000BEB0203029A2046138000E0002005B077
:10143000BDE8F08FE60F0020E80F002070B50D46E4
:101440001646441E14F8013F3BB118463246294661
:10145000FFF7A6FF23789842F4D0184670BD00002D
:1014600007B50121022004F08DFE01230093032320
:101470008DF804306946002303488DF8073004F0E6
:1014800025FD03B05DF804FB0008024070B590B084
:101490004FF0806301931B4B02931B4B03934FF45C
:1014A00080631A4E07934FF48053089309934FF4C7
:1014B00080730024012501A90A9330464FF40033BC
:1014C0000B930494059506940C940D950E940F942B
:1014D00004F032FC382368468DF800308DF8014066
:1014E0008DF802408DF8035004F0CCFA2A463046BD
:1014F000102104F05DFC2946304604F047FC10B092
:1015000070BD00BF4C220140081100201064024051
:1015100030B58BB000254FF48033684600950193B9
:101520000295039504F00CFB04958DF81550089571
:10153000114D4FF080530124069304A94FF010631E
:10154000284607938DF814408DF8244004F0D2FA11
:101550002346224628460A2104F00FFB214628464E
:1015600004F05BFB2146284604F04EFB214628464A
:1015700004F0FAFA0BB030BD0022014030B5012171
:1015800089B0042004F016FE124B134C1A68134B5A
:10159000B3FBF2F3013B01935323ADF800306946EE
:1015A00000232046ADF80830ADF8023004F0E4FE28
:1015B00008A932230593602321F8143D0125204614
:1015C000ADF80E5004F022FF2946204604F012FF29
:1015D00009B030BD781603080008004040420F00F3
:1015E00008B50121084804F0CDFD01214FF48060C9
:1015F00004F0ECFDFFF734FFFFF748FFFFF788FF2B
:10160000BDE80840FFF7BABF0400400007B5134922
:10161000134804F0EDFB134B134801221A70134BCF
:101620001B6840F6FF72C3EB0343B3FBF2F3A3F571
:1016300000431BB200EE103AB8EEC00AFFF7C6FC3A
:10164000FDEEC07A0A4ACDED017ABDF9043013806F
:10165000084A138003B05DF804FB00BF208000102F
:10166000106402400C1100206C04002008110020BE
:101670003C1200203E120020003018BF01207047AD
:1016800008B528B902F0B0FB003018BF012008BD32
:10169000012008BD70B50C46ADF5027D60BB11F0B0
:1016A000030115D0D518AA4210D0012302A90020A9
:1016B000561CFFF7EFFF00BB4FF40072204602A953
:1016C000FEF7ACFD04F500743246ECE7002014E0B0
:1016D00001934FF40073009352020B46204602F030
:1016E000E1FB48B902F0FCFC044602F02CF80028AB
:1016F000FBD10CB9204600E004200DF5027D70BD41
:10170000F0B50C46ADF5037D154673B368BB11F01B
:10171000030116D09E18B54211D04FF40072214635
:1017200002A8FEF77BFD01232A4602A900206F1CB8
:10173000FFF7E6FFD0B904F500743D46EBE7002063
:1017400014E001934FF40073009352020B462046BD
:1017500002F01AFC48B902F005FD044601F0F3FF5F
:101760000028FBD10CB9204600E004200DF5037DD4
:10177000F0BD000038B515460446A8B902290CD0C2
:1017800003290ED0012911D1094903460A6DD1E977
:101790001201FEF763FE286008E04FF40073138027
:1017A00004E00123136001E0042038BD204638BD69
:1017B00098100020004870470000214601380A4474
:1017C000914204D011F8013B00F8013FF8E770475F
:1017D0000244904202D000F8011BFAE7704700F182
:1017E0000B010023DA0142EA530310F8012B52FAED
:1017F00083F38842DBB2F5D118467047036810B511
:101800000446B3B119460A4611F8010B1F2802D944
:101810003A28F8D101E0002010BD591C8A4208D1B5
:101820001B78303BD9B2012903D801321846226017
:1018300010BD4FF0FF3010BD08B568B103685BB153
:101840001A784AB1D9888288914205D15878FFF731
:1018500013FF10F0010000D0092008BDCA7E8B7E66
:10186000032843EA022301BF487D0A7D42EA0022A1
:1018700043EA024318467047F8B5C56A00F13007DD
:10188000044601232A4639464078FFF739FFA0B9BC
:10189000236AA2692071EB1A934201D30020F8BD9C
:1018A000E678012EFAD9A36960781D442A460123FF
:1018B0003946FFF725FF013EF3E70120F8BD037924
:1018C0000BB1FFF7D9BF1846704770B50446FFF754
:1018D000F6FF0546002850D12378032B45D16379C4
:1018E000012B42D104F13006014662893046FFF7F0
:1018F0006FFF552284F82E22AA2284F82F2252222A
:1019000084F8302084F83120612284F8322084F871
:101910001722226984F81822412184F8331084F8B0
:101920001612C2F3072184F81912110C120E84F852
:101930001B22E26884F81A12C2F3072184F81C22E1
:1019400084F81D12110C120E84F81F22E26984F82B
:101950001E127220013284F8140284F81502E26229
:1019600031466078FFF7CCFE657100221146607841
:10197000FFF700FF003018BF012070BDC36A8B4223
:1019800070B506460D4611D0FFF799FF044670B9B1
:101990002A46012306F130017078FFF77BFE00280C
:1019A0001CBF4FF0FF350124F56200E00024204603
:1019B00070BD0000002310B503714FF0FF33C36208
:1019C0000446FFF7DBFFC0B994F82F2294F82E32BB
:1019D00043EA02234AF65522934210D1D4F86630E6
:1019E000084A23F07F4393420AD0D4F8820020F0C3
:1019F0007F40801A18BF012010BD032010BD0220B7
:101A000010BD00BF464154002DE9FF410023036093
:101A1000074608461546FFF7F1FE061EC0F2238171
:101A2000994B53F82640002C00F01F813C6023782E
:101A300083B16078FFF720FEC1070BD4002D00F0C2
:101A4000168100F0040303F0FF00002B00F0198161
:101A50000A2016E10023F0B223706070FFF710FE39
:101A6000C20700F106810DB14307F1D404F10A0267
:101A700002216078FFF77EFE064608B1012000E1F2
:101A80006389A3F500739BB2B3F5606FF6D8014686
:101A90002046FFF78FFF01281CD104F5FB7230466A
:101AA00012F8043C03B113684DF8203001300428CB
:101AB00002F11002F4D100265DF826502DB129461E
:101AC0002046FFF777FF08B90AE002200136042E0E
:101AD000F2D1D2E00328D1D008B10D20D1E00546E3
:101AE00094F83B3094F83CE043EA0E2E638973454A
:101AF000F3D194F8463094F8408094F8477084F815
:101B0000038053EA072708F1FF3308BF676DA76119
:101B1000012BE2D894F83D10A1700029DDD04B1EB6
:101B20000B42DAD194F8422094F841304FEA5E1625
:101B300043EA0223B3FBF6F206FB1236B6B2238168
:101B4000002ECAD194F8446094F8430094F83FC042
:101B500050EA062094F83E6008BF206D56EA0C2635
:101B6000BBD007FB08F816FA82F242449042B4D385
:101B7000801AB0FBF1F10029AFD040F6F570814238
:101B800001F1020C06EB05002A4410D94FF6F57658
:101B9000B14270D9C4F814C0E5612062A262002B82
:101BA0009BD1E36D636203264FEA8C0316E00126A6
:101BB000C4F814C0E5612062A262002B8DD0022E11
:101BC0004FEA4C0318BF03EB0C02404418BF0CF063
:101BD000010360621CBF03EB520301260EF1FF32CA
:101BE0001344B3FBFEF39F42FFF477AF4FF0FF3394
:101BF0002361E360032E4FF0800363712AD194F8D0
:101C0000612094F8603043EA0223012B22D1691C41
:101C10002046FFF7B3FEE8B994F82F2294F82E324D
:101C2000607143EA02234AF65522934212D1226B95
:101C3000164B9A420ED103F1FF53D4F8142203F548
:101C4000005320339A4201BFD4F818322361D4F8EC
:101C50001C32E3600E4A2670138801339BB2138056
:101C6000E38000200DE00B200BE00C2009E028466B
:101C700007E0032005E002269AE703287FF42DAF52
:101C8000FCE604B0BDE8F0812C1000205252614106
:101C90002810002043690239023B99423DBF8378F6
:101CA000806A01FB0300002070470129F8B5044653
:101CB0000E4672D9436999426FD20378022B32D013
:101CC000032B48D0012B68D101EB5105016A4389F0
:101CD000B5FBF3F31944FFF751FE10B14FF0FF309D
:101CE000F8BD6189236AB5FBF1F201FB125222446F
:101CF0006F1C2046B7FBF1F1194492F83050FFF702
:101D00003DFE0028EAD16389B7FBF3F203FB1273AF
:101D10001C44F30794F8300045EA00204CBF00094A
:101D2000C0F30B00F8BD43895B08B1FBF3F3016A14
:101D30001944FFF723FE0028D0D162897600B6FB54
:101D4000F2F302FB1366A31993F8310093F83030D5
:101D500043EA0020F8BD43899B08B1FBF3F3016A15
:101D60001944FFF70BFE0028B8D16289B600B6FB14
:101D7000F2F302FB136606F13003234426449878FD
:101D8000DA785B78000440EA026040EA032096F8C3
:101D90003030184320F07040F8BD0120F8BD826853
:101DA00070B50446012A0D46E18001D1022070BDC4
:101DB000036859698A42F9D252B91978032901D1C5
:101DC000596A21B919898D42F0D2586A17E00A463A
:101DD0005E899B7876095E43B542114620680CD334
:101DE000FFF763FF431C02461BD00128DED923689E
:101DF0005B699842DAD2AD1BEEE7FFF74BFFE2607A
:101E00000028D3D02368598949093033B5FBF1F252
:101E100001FB1255104403EB451320616361002060
:101E200070BD012070BD01292DE9F04104460E4628
:101E3000154640F288804369994280F08480037897
:101E4000022B44D0032B59D0012B7CD101EB51083C
:101E5000016A4389B8FBF3F31944FFF78FFD0028AB
:101E600072D16189B8FBF1F201FB1282224416F0B3
:101E700001061FBF92F8303003F00F002B0103F072
:101E8000F00314BF0343EBB282F830300123237117
:101E9000236A08F101072046B7FBF1F11944FFF767
:101EA0006DFD002850D16389B7FBF3F203FB127379
:101EB000234416B1C5F3071506E093F83020C5F3A7
:101EC000032522F00F02154383F8305037E0438991
:101ED0005B08B1FBF3F3016A1944FFF74FFD98BBB0
:101EE00062897600B6FBF2F302FB1366A31983F84E
:101EF0003050C5F3072583F8315020E043899B0813
:101F0000B1FBF3F3016A1944FFF738FDE0B96289C8
:101F1000B600B6FBF2F302FB136606F1300323446E
:101F20002644DA78120602F070421543C5F3072200
:101F300086F830505A702A0C2D0E9A70DD700123ED
:101F40002371BDE8F0810220BDE8F081F8B50546B7
:101F50000F4631B9C66896B143699E4228BF012633
:101F60000EE0FFF7A2FE01283FD9441C02D14FF03A
:101F7000FF30F8BD6B69984238D33E4600E0012639
:101F800034466B6901349C4204D3012E01D80020F1
:101F9000F8BD022421462846FFF787FE30B1411CD8
:101FA000E5D0012821D0B442EBD1F0E76FF07042C8
:101FB00021462846FFF737FFA8B957B92B69EC60CF
:101FC0005A1C0ED0013B2B616B7943F001036B71FE
:101FD00007E0224639462846FFF725FF0028EDD0C6
:101FE00001E02046F8BD0128C1D00120F8BD2DE94F
:101FF000F041C6880136B3B204460F4613B9042037
:10200000BDE8F0810269002AF9D0006843895B09C4
:10201000B6FBF3F503FB1563002B56D1E1680132E3
:10202000226119B903899E42E9D24EE08378013BCF
:102030002B424AD1FFF739FE0128054602D802207B
:10204000BDE8F081421C02D10120BDE8F08120688A
:1020500043699D4233D3002FD1D0E168FFF776FF6B
:102060000546002841D00128E9D0431CECD0206867
:10207000FFF725FC07460028E6D12068394642894B
:102080003030FFF7A5FB226829461046FFF702FE15
:102090004FF00108D06223689A7897420CD283F8F7
:1020A00004802068FFF70BFC0028CDD12268D36A9A
:1020B0000133D3620137EEE7DA6AD71BDF62E560EE
:1020C00029462068FFF7E6FD20612368E68003F1DA
:1020D00030025B895B09B6FBF3F103FB116602EB8F
:1020E000461666610020BDE8F0810720BDE8F0815A
:1020F0002DE9F04F4FF6FF7A4FF0FF0985B0064605
:10210000A0F820A04C4631693068FFF737FC002862
:1021100040F08C8075692A78002A7ED0E52A6FD03D
:10212000E97A01F03F03090702D50F2B68D101E0DE
:102130000F2B51D1F369002B67D0570605D502F05C
:10214000BF04F288697B328402E0A2425CD1494636
:1021500095F80D90894556D1EF7EAA7E42EA072771
:102160003FB2002F50D195F8008008F03F0808F1E9
:10217000FF324FF00D0808FB02F801212D4ABA5C2E
:10218000A818AA5C90F801B042EA0B2BB9B1B8F1DB
:10219000FE0F019338D8584601F004F8019B0390D4
:1021A00008F1010233F81800029200F0FBFF0399D6
:1021B000814229D1029A019B5946904601E0D345BC
:1021C00022D101370D2FD9D12A7850062BD551B302
:1021D00033F818303BB317E024B92846FFF7FFFA6D
:1021E00048451CD0B369DA7AD20709D405F10B004F
:1021F000854216D015F8011B13F8012B9142F7D038
:10220000A6F820A000E08946FF2400213046FFF711
:10221000EEFE00283FF477AF08E0042006E02046F9
:1022200004E0002002E0013CE4B2EEE705B0BDE8C6
:10223000F08F00BF946500082DE9F74F0B782F2B26
:102240000746884601D05C2B01D108F10108002423
:10225000BC6098F800301F2B01D9009461E0214642
:102260003846FFF79CFD7C613EE101313BF81120CF
:10227000202AFAD02E2AF8D011B144F00304E4B297
:10228000324632F8020D2E2801D0013DF9D14FF02F
:1022900000094FF0080A4E463BF811004A1C00287E
:1022A00040F0A080BB691A78E52A04BF05221A70A5
:1022B000BAF1080F04BFB600F6B206F00C030C2BFF
:1022C00000F0F58006F00302032A00F0F080A10779
:1022D0000BD406F00306012E04BF44F01004E4B250
:1022E000042B04BF44F00804E4B2BB690021DC7293
:1022F0003846FFF754FD10B93846FFF7F9FEBB69C1
:10230000DB7A002840F0D7805A0700F1ED80796928
:10231000CB7ADB0640F1D6803B681878FFF79EFA4F
:10232000B86098F800302F2B444608F10108F8D027
:102330005C2BF6D00025D7F81CB02E46A25D90B2DB
:102340001F2806F101082ED92F282CD05C282AD06E
:10235000FF2D00F0C3807F32D2B27D2A0FD814F84F
:102360000820A2F1400102EB00203E2906F10206FE
:1023700080B205D982F080027E2A01D9AEE04646BD
:10238000012100F0E9FE002800F0A8807F2806D88F
:10239000574911F8012F12B19042FAD19EE02BF863
:1023A00015000135CAE72028A0440BEB450234BFD5
:1023B00004240024002D00F0918032F8021D202911
:1023C00001D02E2901D1013DF4E7BDF800302BF8F2
:1023D000153020210B22B869FFF7FAF90BEB4506FF
:1023E000002143E7202803D02E2806D1AA4209D095
:1023F00044F00304E4B211464EE7D14504D2AA42A8
:102400001AD16DE0D1456BD3BAF10B0F05D144F071
:102410000304E4B24FF00B0A44E7AA4204D044F0AC
:102420000304E4B23FF63EAFB600F6B22A464FF0E0
:102430000B0A4FF00809DEE77F281FD9019200F050
:10244000B1FE002100F088FE44F0020EFF285FFA82
:102450008EFE019A10D90AF1FF31894504D344F068
:102460000304E4B2D146C6E7B969040A01F8094099
:1024700009F10109744614E038B174461D4B13F894
:10248000011F39B18842FAD1A6464EF00304E4B2E6
:102490005F2006E0A0F1410189B2192914D846F065
:1024A0000206B96901F8090009F10109A3E744F03E
:1024B0000204E4B20BE7042816D113F0040F08BF9E
:1024C000052011E005200FE0A0F1610189B2192972
:1024D0009EBF203846F0010680B2E2E7062003E006
:1024E000BAF10B0FA0D192E703B0BDE8F08F00BFA7
:1024F0004F650008586500082DE9F04F8469C669EA
:1025000087B00C22054621460DEB0200FFF756F975
:102510009DF81730DB0771D50023E3724FF00108F7
:10252000EB6101AF0B2203A92046FFF747F9B8F191
:10253000050F01D8434615E0B01E434630F8022F80
:1025400082B1102102F0010E0EEB430313F4803F21
:102550001CBF83F4883383F0210301394FEA520210
:10256000F0D1EBE7072103F00F0202F13000392828
:1025700088BF02F137001B0901F1FF32785401D006
:102580001146F0E706A810444FF07E0E00F814EC58
:1025900002399A420BD9E05C202808D07F30C0B2C3
:1025A0007D2802D8994202D001330133F1E7234458
:1025B000072A9BBF06A98918202111F8141C03F8CB
:1025C000011BA3EB040198BF01320729F0D90021B8
:1025D0002846FFF7E4FB50B92846FFF789FD30B9DC
:1025E00008F10108B8F1640F9CD10720A6E0042887
:1025F00040F0A4809DF81730E372EE619DF817302B
:102600009B070AD5002436F814300BB10134FAE7E1
:1026100019340D23B4FBF3F400E001240021284613
:10262000FFF7BDFB002840F0868006462969286830
:10263000FFF7A4F900287ED16B691B78E52B00D049
:102640002BB90136B44203D1013C59D007E006460C
:1026500001212846FFF7CBFC0028E7D06BE0E98892
:102660002846091BFFF79BFB002867D1A869DFF804
:10267000D480FFF7B4F80F27064629692868FFF7CA
:102680007DF90346002859D16A69D5F81C9010736A
:102690005FFA84FE9076D0760EF1FF310D20414333
:1026A0005673D77218464FF6FF7A504513F808C094
:1026B00018BF39F8110002F80C0003F1010394442B
:1026C00018BF01314FEA102B002808BF50460D2BD0
:1026D0008CF801B0E9D14FF6FF73984202D039F877
:1026E00011300BB94EF0400E82F800E02B68012249
:1026F0001A7100212846FFF77AFCF8B9013CBCD1D9
:1027000029692868FFF73AF9044690B92022214642
:102710006869FFF75DF80B22A9696869FFF74EF851
:10272000AB696A69DB7A03F0180313732B68012223
:102730001A71204602E0042808BF072007B0BDE850
:10274000F08F00BF94650008012970B504460D465E
:1027500001D8022070BD43699942FAD263699D4253
:1027600005D229462046FFF7A0FA064608B9002000
:1027700070BD0128EDD0411C10D000222946204612
:10278000FFF751FB58B923695A1C05D00133236167
:10279000637943F0010363713546DFE7012070BDC3
:1027A0001FB5019004A8009140F8041D1446FFF7DE
:1027B00025F8011E14DB0D4B53F8210008B100224F
:1027C0000270019808B10022027043F8210050B154
:1027D000012C07D10022694601A8FFF715F902E094
:1027E0000B2000E0002004B010BD00BF2C10002022
:1027F0002DE9F043ADF50F7D144601910646002802
:1028000000F08D800023036002F01E0201A905A8DC
:10281000FFF7FAF8002840F0898002AB0B9301998A
:102820000EAB05A80C93FFF707FD0A9D10B9002D0C
:1028300008BF062014F01C0F04F01F0749D050B148
:10284000042873D105A8FFF757FE00286ED147F082
:1028500008070A9D05E0EB7A13F0110F65D16307B5
:102860005FD43C0741D5FEF7A5FF0024C0F3074322
:10287000C1B2C0F30722DDF81480A973000E2B74D7
:10288000A9752B76EC722C776C77AC77EC77EA73C2
:102890006874EA75687698F800002946FEF7DEFF4E
:1028A0000123AC76EC762C756C7588F80430044600
:1028B000C8B101464046D8F82C90FFF745FF0028E4
:1028C00034D10598013CC4604946FFF757F840B140
:1028D0002CE058BBEB7AD80625D4A10701D5DA073E
:1028E00023D43B0701D547F02007DDF814800024EE
:1028F000D8F82C30F3613562B771F47198F80000A4
:102900002946FEF7ABFF3061EB69F360B8F806309B
:10291000B460B461C6F80080B380204606E00920A8
:1029200004E0082002E0042000E007200DF50F7D00
:10293000BDE8F0832DE9F74F9B460023CBF800302C
:10294000044689469046FEF777FF002840F0B9809C
:10295000E079002840F0B580A379990740F1B08074
:10296000A36813EB080F64D204F12403019345E03C
:10297000012966D04A1C75D02369616103B92161C0
:10298000A3795B0671D4D4F800A061695046FFF7C3
:1029900081F9002855D0BAF80A70B8FBF7F7461944
:1029A000002F50D09AF802309AF80100EA199A42A2
:1029B00088BF5F1B3B4632464946FEF7A1FE002812
:1029C00050D1A169891B8F420AD9236801985A897D
:1029D00002FB0191FEF7F2FEA37923F04003A371FD
:1029E00023685B895F43A3683B44A360DBF8003046
:1029F0003B44B944CBF80030C7EB0808B8F1000FEE
:102A000017D02068A1684289B1FBF2F302FB1312D0
:102A1000002A39D18578013D1D4015F0FF05AFD161
:102A200069B921690029A3D1FFF790FA014600286E
:102A30009ED1A368E26893423CD9E3603AE06169C1
:102A4000F2E702200FE0A3699E421CD0A268E3686F
:102A50009A4218D20123324601999AF80100FEF7F2
:102A600019FE80B10120E0712BE02068A269019974
:102A700040780123FEF744FE0028F3D1A37923F028
:102A80004003A3717FE7A6612368A0685F89B0FB5C
:102A9000F7F307FB13003F1A474528BF474620447A
:102AA0003A4649462430FEF789FEA37943F04003B5
:102AB000A37198E7A37943F02003A371002000E0FD
:102AC000072003B0BDE8F08F70B50446FEF7B4FEF2
:102AD00000284DD1A37903F0200202F0FF00002A64
:102AE00046D05B060DD52068A2694078012304F129
:102AF0002401FEF705FE002838D1A37923F0400316
:102B0000A371E1692068FEF739FF064680BB256A9C
:102B1000EB7A43F02003EB72E3682B77A3891B0A5F
:102B20006B77E389AB77E37BEB772369AB76C3F312
:102B300007221B0C2B751B0AEA766B75FEF73AFE13
:102B4000C0F30723A875EB75030C000E2B7668768F
:102B5000AE74EE74A37923F02003A37123680122DD
:102B60001A712068BDE87040FEF7AFBE012070BD4D
:102B700070BD10B50446FFF7A7FF20B92046FEF749
:102B80005BFE00B9206010BD2DE9F04F89B001292E
:102B900005908946154600F2B08205A8FEF72EFE84
:102BA0000028C0F2AC82A74B53F82040002C00F064
:102BB000A8820023C6B223703046FEF761FDC2072B
:102BC00000F1A182430700F1A08204F10A02022170
:102BD0003046FEF7CFFD08B10120B4E26389A3F5CA
:102BE00000739BB2B3F5606FF6D807AA0121304697
:102BF000FEF7C0FD0028EFD1079B7F2BECD9B9F180
:102C0000000F14BF00223F229B1A01926A1E2A4223
:102C10000793628902D1002D40F079828A4F500AD1
:102C20004FF4FA6191FBF0F10020B3FBF1F137F8BA
:102C30001050A94201D20130F9E7844931F810500F
:102C4000B5F5007F01D3B5FBF2F51DB1812D28BF8D
:102C5000802500E0012540F6F571B3FBF5F78F42C2
:102C600040F269824FF6F5718F4207F1020740F298
:102C70005382511E01EB8707B7FBF2F700224FF09A
:102C8000030803924FF0200A019A52440292039AD9
:102C900007EB020B029A9344019AAA1A5A449342F0
:102CA00001D20E204FE206AA03213046FEF762FD54
:102CB00020B9069B013BB3F5004F01D301230693D6
:102CC000069A0399531EB8F1030FC2F100025B4448
:102CD00003EA020308BF029ACBEB030304BFD21836
:102CE0009A44069308BF1346079A0CBF0293FF1835
:102CF000CAEB0203DB1BB8F1020FA3EB0103B3FB2A
:102D0000F5F3049305D1049940F6F5739942C8D9B7
:102D100012E0B8F1030F06D1049A4FF6F5739A4208
:102D2000BFD90C230DE0B8F1010F05D1B2F5803FFA
:102D30002CBF0623012304E0B2F5803F2CBF0623FD
:102D40000423B9F1000F48D104F1300B62894946E0
:102D50005846FEF73DFD84F8F231FE23079A84F8C9
:102D6000F331019B84F8FA21991843F6C163B1FB52
:102D7000F3F18B0843F03F0384F8F4313F2384F8E8
:102D8000F631C2F3072384F8FB31130C84F8FC31CD
:102D900055230120120E84F82E32AA2384F8EF0165
:102DA00084F8F001069184F8F51184F8FD2184F887
:102DB0002F3284F8F191034684F8F79184F8F89162
:102DC00084F8F9914A4659463046FEF799FC0028A6
:102DD0007FF402AF4FF0F80B01E04FF0F00B04F17D
:102DE0003009628900214846FEF7F2FC0B2218499F
:102DF0004846FEF7E3FC638984F83B301B0A84F8FD
:102E00003C300123B8F1030F84F840304FF0000349
:102E100084F8413018BF022384F84230079B84F8BD
:102E20003EA0B3F5803FCAF3072A84F83D5084F8EA
:102E30003FA09AB20ED2120A84F8433084F844209C
:102E400013E000BF2C1000203A650008A2650008BE
:102E500060650008120A84F8503084F851201A0C7A
:102E60001B0E84F8522084F853303F2384F84830F6
:102E7000FF234FF0000A84F84A309DF8043084F8AC
:102E80004C3084F845B084F849A084F84BA084F80D
:102E90004DA084F84EA084F84FA0FEF78BFCB8F14B
:102EA000030F069083B234D11B0A84F87430030CEC
:102EB00084F87530C7F3072384F855303B0C84F849
:102EC00056303B0E84F85730022384F85C300123DF
:102ED00084F86030062384F86230802384F873001D
:102EE00084F87030000E292384F8760084F854703A
:102EF00084F85DA084F85EA084F85FA084F861A0E7
:102F000084F863A084F872301322904904F17700AA
:102F10001AE01B0A84F85830030C84F85930C7F3C0
:102F2000072384F84730802384F8570084F854300E
:102F3000000E2923864984F85A0084F8467084F8E4
:102F40005630132204F15B00FEF738FC552384F859
:102F50002E32AA2384F82F32019A012349463046A3
:102F6000FEF7CEFB00287FF437AEB8F1030F06D191
:102F7000019A0123063249463046FEF7C1FB6289B9
:102F800000214846FEF724FCB8F1030F14D0714B22
:102F9000B8F1010F18BF6FF0FF0343EA0B03FF22E4
:102FA0004FEA136B069384F8303084F8312084F8AC
:102FB000322084F833B01CE06BF0FF03069384F8F2
:102FC0003030FF2384F8313084F8323084F83330E5
:102FD00084F8343084F8353084F8363084F837306B
:102FE00084F8383084F8393084F83A300F2384F884
:102FF0003B30029B029A494603F1010A3046012305
:10300000FEF77EFB014600287FF4E6AD6289484664
:10301000FEF7DEFB01230693069B9F420FD9012397
:103020005246494630460AF1010BFEF769FB00287B
:103030007FF4D2AD069B01330693DA46ECE7039B9F
:10304000B8F1030F18BF1D465246554401234946A7
:103050003046571CFEF754FB00287FF4BDADAF424D
:103060003A46F3D1B8F1030F3ED1522384F8303001
:1030700084F83130612384F8323084F81732049BAD
:1030800084F81D02013B412284F8332084F8162283
:10309000C3F3072284F8183284F819221A0C1B0E85
:1030A00084F81B32022384F81C32552384F81A2238
:1030B00084F82E32019A84F81E02AA23722184F821
:1030C0002F3201231A4484F8141284F8151284F85C
:1030D0001F0249463046FEF713FB019A01230732CF
:1030E00049463046FEF70CFB002211463046FEF7FB
:1030F00041FB003018BF012025E0132023E00B2006
:1031000021E00C201FE003201DE00A201BE0B5F5A4
:10311000007FBFF498AD99E57F004FF00208511E83
:103120000F444FF0010AB7FBF2F74FF48041B1FBB7
:10313000F2F20392A8E507EB470701377F08033750
:103140004FF00108EBE709B0BDE8F08F6C650008AF
:103150008065000800FFFF007F28F0B51CD90F4AEA
:103160000F4B45F22056002914BF19461146002581
:1031700010220227731B93FBF7F32B449C0031F8BA
:1031800023E0704506D08CBF1D461E46013AF1D1A2
:103190001046F0BD21444888F0BD00BFF4C10108CD
:1031A000B86500087F2870B506D8A0F16103192B17
:1031B00017D8203880B270BD0A4D0C2200214FF480
:1031C000F774631A01EB530335F81360B04205D06E
:1031D00094BF1C461946013AF3D170BD024A32F839
:1031E000130070BD3CBA010818BE010810B50D4BA4
:1031F000586B10F0450FFBD0430704D5042003F0B3
:103200008DF8032010BD10F0010404D0012003F05C
:1032100085F8012010BD40F2FF5003F07FF82046F2
:1032200010BD00BF002C014038B5394B0546586B26
:1032300010F0450FFBD0410704D5042003F06EF8D1
:10324000032038BD10F0010404D0012003F066F81B
:10325000012038BD03F022F8A84201D0102038BD6B
:1032600040F2FF5003F05AF8204603F01DF8294BB6
:1032700003404BB3002829DB420029D4830029D422
:10328000C50029D4040129D4410129D4C20129D47B
:10329000030229D44502E1D4840227D4C10227D4F1
:1032A000020327D4430327D4850327D4C40327D498
:1032B000010427D4420427D4830427D410F0080F34
:1032C0000CBF00201A2038BD184638BD1C2038BD60
:1032D000092038BD0A2038BD0B2038BD0C2038BD70
:1032E0000D2038BD0E2038BD0F2038BD112038BD4F
:1032F000122038BD132038BD142038BD152038BD2C
:10330000162038BD172038BD182038BD192038BD0B
:10331000002C014008E0FFFD2DE9F7434A4D002352
:10332000102406464FF0080928464FF040084FF495
:10333000806700930193C5F800906C60C5F8088021
:10334000EB602F6102F094FF2046FFF76DFF00282D
:1033500076D13E4BE8601B68C5F80880A34028463C
:1033600037242B606C602F6102F082FF2046FFF74C
:103370005BFF0446002862D135484FF0FF3380E8F8
:103380000802302383600223C36001234361046188
:103390004FF0330902F094FF28462C60C5F80490E2
:1033A000C5F80880EC602F6102F062FF4846FFF725
:1033B0003BFF002844D1274DADF104046A6B40F275
:1033C0002A63134053B94FF4001002F0B7FF0028EE
:1033D000F4D002F08BFF44F8040FEFE7082002F06E
:1033E000ADFF20B1082002F099FF042028E0022060
:1033F00002F0A4FF20B1022002F090FF02201FE0A3
:10340000202002F09BFF20B1202002F087FF062041
:1034100016E04FF4007002F091FF044628B14FF41B
:10342000007002F07BFF07200AE040F2FF5002F03C
:1034300075FF009B1BBA7360019B1BBA336020466B
:1034400003B0BDE8F08300BFF0100020941000200E
:1034500038100020002C0140F7B5044600200090F1
:10346000019002F021FF810143D46846FFF754FF29
:10347000002841D1012C019B18D15A033BD51F4B89
:103480001F4C1B68E0601B043725204640274FF483
:10349000806623606560A760266102F0E9FE284629
:1034A000FFF7C2FE40BB0223236016E0DB0322D5F8
:1034B000124B134C1B68E0601B0437252046402745
:1034C0004FF4806623606560A760266102F0D0FE3D
:1034D0002846FFF7A9FE78B920600625E06020465F
:1034E0006560A760266102F0C3FE2846FFF79CFED8
:1034F00002E00E2000E0252003B0F0BD9410002073
:10350000F010002038B50D4B1B6805460C481B0415
:1035100003604023836000230D24C3604FF4806365
:103520004460036102F0A4FE2046FFF77DFE0446DE
:1035300010B902F0B9FE2860204638BD9410002072
:10354000F0100020F7B5284C284F01210C2002F084
:1035500019FE20460C22082102F0FEFC20460C2217
:10356000092102F0F9FC20460C220A2102F0F4FCA9
:1035700020460C220B2102F0EFFC0C2211462046C3
:1035800002F0EAFC0C223846022102F0E5FC4FF47E
:1035900070630125009300260223694620468DF8BA
:1035A00005308DF804308DF806608DF8075002F074
:1035B0008DFC042369463846009302F087FC4FF4E3
:1035C00080536946204600938DF8076002F07EFC28
:1035D00029464FF4006002F0F9FD29464FF48000BF
:1035E00002F0D0FD03B0F0BD00080240000C024024
:1035F00030B5224C91B005464FF0FA51204602F00A
:103600000FFC0021204602F0C1FB204602F00EFB19
:103610004FF0006301931A4B02934023049300235D
:1036200006930A934FF440330B9304230C934FF407
:103630008062032307920D934FF480524FF40003EE
:103640000395089201254FF480420E9301A94FF48F
:10365000001320460F930992059502F06DFB2A4650
:103660002046102102F0A4FB2046202102F097FB07
:103670002946204602F08AFB11B030BD5864024052
:10368000802C014030B5224C91B005464FF0FA51E4
:10369000204602F0C5FB0021204602F077FB2046C1
:1036A00002F0C4FA4FF0006301931A4B0293002317
:1036B000049306930A934FF440330B9304230C9323
:1036C0004FF48062032307920D934FF480524FF41E
:1036D00000030395089201254FF480420E9301A93F
:1036E0004FF4001320460F930992059502F024FB36
:1036F0002A462046102102F05BFB2046202102F0E2
:103700004EFB2946204602F041FB11B030BD00BF00
:1037100058640240802C014007B500230193012327
:103720008DF803309DF80330012B01D0FF2007E016
:1037300001A8FFF7E7FE0028F8D10198C0F3432065
:1037400003B05DF804FB08B5FFF7E6FF042804D0DA
:10375000FF280CBF0220012008BD002008BD00008A
:103760002DE9F04F7C487D4C85B00025762303750C
:10377000056045608560C56005618DF80F5002F0F9
:103780004BFD032002F066FD012002F05DFD4FF4C9
:103790008063204625606560A560E560236102F0D6
:1037A00067FD4FF48035802002F0C8FD002840F00E
:1037B000CC80013DF7D103238DF80F309DF80F30F9
:1037C00003F0FF05002B40F0BA804FF4D5730826B4
:1037D000402784E8C8006148E5604FF480632361B6
:1037E00002F046FD5E494B6B4FF4803213F0450FFB
:1037F00003D12AB1013A4B6BF8E70AB1580704D557
:10380000042002F08BFD032504E0590602D5402078
:1038100002F084FD8DF80F509DF80F302BB9514BFD
:1038200001221A604FF0804611E040230026372520
:10383000A3604A4826604FF4806323616560E660B8
:1038400002F016FD2846FFF7EFFC8DF80F0000236D
:10385000372584E828004022E3604048A2604FF406
:103860008063236102F004FD2846FFF7DDFC8DF83C
:103870000F009DF80F3003F0FF05002B5FD1DFF83C
:10388000E090364FCA46002340224FF037083348B5
:10389000A2604FF4806B84E808010192E360C4F8F1
:1038A00010B002F0E5FC4046FFF7BEFC8DF80F00BB
:1038B0009DF80F30019A03F0FF08002B3FD146F02E
:1038C000004343F480133B602448BA6029237B60A3
:1038D000C7F80C80C7F810B002F0CAFCD9F8343031
:1038E00013F0450F02D1DAF83430F9E75A0705D55D
:1038F000042002F013FD4FF0030803E040F2FF50F4
:1039000002F00CFD8DF80F809DF80F3003F0FF00E2
:10391000ABB902F0C9FC002805F101054FF6FF73B1
:1039200002DB9D42AFD101E09D4203D11B238DF804
:103930000F3004E0430042BF0A4B02221A609DF898
:103940000F00C0B205B0BDE8F08F40F2FF5002F0AA
:10395000E5FC002330E700BF78100020F0100020C5
:10396000002C01406010002038B502F079FC0028DE
:1039700000F08A804B4D2B68042B20D04A4800234E
:10398000022203604260C360C0224FF48063826001
:10399000036102F06DFCFFF729FC002876D102F0EC
:1039A00083FC424C2060042002F07EFC6060082012
:1039B00002F07AFCA0600C2002F076FCE0602B683C
:1039C000022B01D9062B36D137480023032203608E
:1039D0004260C36040224FF480630361826002F062
:1039E00047FC334B586B10F0450FFBD0440704D510
:1039F000042002F093FC032038BD10F0010404D031
:103A0000012002F08BFC012038BD02F047FC0328A6
:103A100041D140F2FF5002F081FC204602F044FC0C
:103A200010F4604F01D1030C06E0810435D4420448
:103A300031D4030433D401232A68042A27D01D4A31
:103A4000194813601B04036009234360C02383608B
:103A50000023C3604FF48063036102F009FCFFF7A9
:103A6000C5FB0446A8B902F01FFC134D28600420D2
:103A700002F01AFC6860082002F016FCA8600C2016
:103A800002F012FCE86004E0252038BD38BD0020BB
:103A900038BD204638BD102038BD132038BD0F205A
:103AA00038BD00BF60100020F0100020641000201E
:103AB000002C01409410002050100020A14AF0B5C5
:103AC0001568A14AA14C1268A0F85420226880F819
:103AD00056500346100EC1B28E09C0F3830001F0A8
:103AE00003011E7058709970C2F30741D970C2F378
:103AF000072119716168D2B25A710A0E1201DA8077
:103B0000DA88C1F3074092B242EA101200F00F00C7
:103B1000DA801872080AC2B2D6095E72C0F3801643
:103B20009E72C0F34016DE72C0F300161E73012DA4
:103B30004FF000065E7340D8800200F440601861C8
:103B40001A69890001F47F711143A26819611D6926
:103B5000100EC1B245EA9115C0F3C20001F0070191
:103B60001D6118755975110CC1F342109875C1F398
:103B70008200490001F00601D8751976197EC2F35A
:103B8000072241EAD2111976D3F810E0187E1D7A87
:103B90000121023001FA05F501FA00F0C717A0FB78
:103BA000050105FB07111D650EF10105A0FB056769
:103BB00005FB0177C3E9126720E0022D1ED109043D
:103BC00001F47C111961A2681969100E41EA002103
:103BD00019611969C2F3074001431961186900218D
:103BE000013041F10001C90441EA5031D964C004F7
:103BF0004FF40071C2F3072298641965C2F3801173
:103C0000520002F07E0259769A76997E227A41EA33
:103C1000D2119976E16802F07F02DA760A0ED009B5
:103C20001877C2F341105877C2F38200920002F075
:103C30000C029877DA77DC7F080CC2B244EA92145F
:103C4000C0F34010DC7702F0010283F8200000206E
:103C500083F8210083F822200A0AD4B2E50983F808
:103C60002350C2F3801583F82450C2F3401583F823
:103C7000255004F00304C2F30015C1F34601C2F35A
:103C8000810283F8265083F8272083F8284083F8A0
:103C900029102F490A680124150E83F82A4083F859
:103CA0002C50C2F307452D02DD85DD8DAEB2C2F387
:103CB000072535431206DD851A634A681D6B160E0B
:103CC00045EA06451D631E6B150A05F47F4535431D
:103CD0001D631D6BC2F307263543D2B21D6383F803
:103CE00034208A68150E83F83550150C2D069D6317
:103CF0009E6B150205F47F0535439D639D6B120293
:103D000002F47F422A439A63CA68996B41EA1261BE
:103D1000996393F83C60110CC1F303150902354314
:103D200001F4706183F83C50D987D98F8DB2C2F30A
:103D300007212943C2F34602D98783F8402083F83C
:103D40004140F0BD60100020941000205010002071
:103D50006410002038B5174B1B68032B054624D090
:103D6000022B20D8B0F5805F1FD0B0F5006F0BD1CB
:103D70000120FFF771FB0446C8B90F4804750460C1
:103D800044608460C5600AE00020FFF765FB0446DC
:103D900068B909480475046044608460C4600461C3
:103DA00002F03AFA03E0002038BD272038BD204653
:103DB00038BD00BF601000207810002010B5094BFE
:103DC00040229A60002207241860DA6018464FF4F7
:103DD00080625C601A6102F04BFA2046BDE8104038
:103DE000FFF722BAF010002037B500254FF4C0606D
:103DF00001248DF8035001F03BFE312301A88DF81A
:103E000004308DF805408DF806508DF8074001F01C
:103E100039FE3B2301A88DF804308DF8054001F0F0
:103E200031FEFFF78FFB02F0E9F9FFF799FC8DF8FF
:103E300003009DF8033063BBFFF796FD8DF8030088
:103E40009DF8032002F0FF031ABB1448144C0375BD
:103E5000036043608360C360036102F0DDF92046C4
:103E6000FFF72CFE8DF803009DF8033003F0FF01EF
:103E700033B9B4F854000004FFF7A0FF8DF8030035
:103E80009DF803302BB94FF40060FFF763FF8DF806
:103E900003009DF80300C0B203B030BD78100020CD
:103EA000981000202DE9F0471F46304BBDF82050F8
:103EB000DDF82480164600221A702D4B1A602D4B17
:103EC00001241C602C4B8146DA62214640F22A30E4
:103ED00002F018FA08FB05F14846FFF7D3FB20462D
:103EE00002F00AFA254B264C1B68022B02BF760A09
:103EF00046EAC7564FF400754FF0100A00232046DB
:103F00004FF040094FF48067C4F804A0E3602560D7
:103F1000C4F80890276102F0ABF95046FFF784F926
:103F2000824600BB17484FF0FF3303609023836045
:103F3000022305FB08F5C36001234560C0F810A00B
:103F40004361122502F0BCF9204626606560C4F882
:103F50000890C4F80CA0276102F08AF92846BDE851
:103F6000F047FFF761B9BDE8F08700BF34100020CB
:103F70007410002004110020002C0140601000206B
:103F8000F0100020381000202DE9F0471F46414B6B
:103F9000BDF82050DDF82480164600221A703E4BF2
:103FA0001A603E4B01241C603D4B8146DA6221467B
:103FB00040F21A3002F0A6F908FB05F14846FFF777
:103FC00017FB204602F098F9364B374C1B68022B42
:103FD00002BF760A46EAC7564FF400754FF0100A42
:103FE000002320464FF040094FF480672560C4F855
:103FF00004A0C4F80890E360276102F039F9504644
:10400000FFF712F9002843D1284BE0601B68C4F881
:10401000089003FA0AF320464FF0370A2360C4F8E9
:1040200004A0276102F024F95046FFF7FDF878BBA1
:104030004FF0170AE0602046C4F80080C4F804A0DE
:10404000C4F80890276102F013F95046FFF7ECF826
:10405000F0B92660E060192620466660C4F8089032
:10406000276102F005F93046FFF7DEF8044670B923
:104070000F484FF0FF330360902305FB08F5836082
:1040800001234560C4600461436102F019F92046D0
:10409000BDE8F087341000207410002004110020C7
:1040A000002C014060100020F0100020941000202F
:1040B0003810002010B5094800230C2480E81800AF
:1040C000C36040224FF480638260036102F0D0F845
:1040D0002046BDE81040FFF7A7B800BFF010002051
:1040E00070B51B4A1B491C484FF0FF33146834B9A4
:1040F0000C6824B9047814B90BB1013BF6E7144BF2
:1041000000221A60154B4FF0FF355A6B920402D50E
:104110000DB1013DF9E7124E3368012B13D1FFF7C2
:10412000C9FF0023044633600DB900B9042440F2EE
:10413000FF5002F0F3F8084B1A7812B11878C0B2A9
:1041400070BD204670BD002DF0D00024EFE700BF09
:10415000901000207410002034100020002C01402A
:104160000411002070B51B4A1B491C484FF0FF3357
:10417000146834B90C6824B9047814B90BB1013B44
:10418000F6E7144B00221A60154B4FF0FF355A6BBF
:10419000D20402D50DB1013DF9E7124E3368012B6F
:1041A00013D1FFF787FF0023044633600DB900B930
:1041B000042440F2FF5002F0B1F8084B1A7812B113
:1041C0001878C0B270BD204670BD002DF0D000241C
:1041D000EFE700BF90100020741000203410002082
:1041E000002C01400411002010B54FF4807002F043
:1041F0009BF8214C48B100234FF48070237002F0EB
:104200009FF81E4B01221A602EE0022002F08CF86B
:1042100020B1022002F094F8022324E0082002F0EA
:1042200083F820B1082002F08BF804231BE0202043
:1042300002F07AF820B1202002F082F8062312E082
:10424000102002F071F820B1102002F079F8052357
:1042500009E04FF4007002F067F828B14FF40070E5
:1042600002F06EF80723237000214CF23A3002F07E
:1042700049F8207810BD00BF3410002074100020D1
:10428000064B1B6813F0C05F07D0054B05480122A1
:104290004FF0C2511A6001F0C3BD70470064024084
:1042A0009010002058640240FFF79EBFFFF7E8BF60
:1042B000034B044A53F8203032F810201A83704719
:1042C0007C0400207C160308034B044A53F820307A
:1042D00032F810205A8370477C0400207C160308B3
:1042E000044B054953F8202031F8101053694B4016
:1042F000536170477C0400207C160308F7B5012148
:10430000264C084601F03EFF4FF4C0530026032719
:1043100000936946022320468DF804308DF805701D
:104320008DF806608DF8076001F0D0FD20460A2266
:104330000B2101F011FE0A2220460C2101F00CFE97
:1043400001254FF400736946204600938DF80570EF
:104350008DF804608DF806508DF8076001F0B6FD09
:104360004FF480636946204600938DF806508DF81F
:1043700007508DF8057001F0A9FD0A22114620466C
:1043800001F0EAFD29464FF4804001F01FFF294665
:10439000802001F003FF03B0F0BD00BF0000024029
:1043A00007B54FF4C06001F063FB43238DF8043080
:1043B0000322012301A88DF805308DF806208DF821
:1043C000073001F05FFB03B05DF804FB064B074AC2
:1043D0001B68B3FBF2F358430723B0FBF3F0002351
:1043E00001339842FCD270472C04002040420F0059
:1043F0004FF47A735843FFF7E9BF000037B5002345
:10440000104C019305460320FFF7E0FF2B68013CA9
:104410001A69019213D0019A002AF4DA019A42F043
:1044200001020192019A1A61064A19690191013A41
:1044300002D00199C907F8D40320FFF7C7FF002075
:1044400003B030BD410D030010B5C4786CB900EB6A
:1044500082000333D0F8D0009B102246934204D050
:1044600051F8224004600132F8E7002010BD10B579
:104470000332D0F8D03092100020904204D01C6853
:1044800041F820400130F8E701EB800010BD00004A
:104490000122F0B50023827001294FF04002C37061
:1044A00082800CD108230370042343704FF4A0735F
:1044B000C38002230372C1724FF0A04309E041B9E7
:1044C0000C230370062343704FF4A063C380234B77
:1044D000C17203F5006246780261C36000F1140402
:1044E00000F150051A460021B14202F120070AD21C
:1044F00002F5106E02F5306244F804EF013145F820
:10450000042F3A46F0E703F580624261044603F562
:104510008862C0F8CC2014F88C2B03EB421503F50D
:10452000A06105F5A065A94203D044F8041F20311D
:10453000F9E703EB023203F5805100F1CC0402F5F8
:104540008052914204D044F8041F01F58051F8E7ED
:1045500003F56063C0F80C310020F0BD000004409A
:1045600038B5037A012B05464FF0000450F80C2FA4
:104570001ED1936B697A64F3104309B143F480133D
:104580009363D3686FF386136FF396536FF35143BE
:104590006FF3D343D360FFF731FFEB78012B19D1D1
:1045A000052363F34404EB6844F020049C6011E0AD
:1045B000D36843F04003D360FFF720FF6B7AEA68CB
:1045C000002B0CBF4FF434134FF474139363142077
:1045D000FFF70EFFEB78012B07D1EB689C680522F3
:1045E00062F3440444F020049C60002038BDC2689B
:1045F000936843F00103936000207047C26893689A
:1046000023F00103936000207047000007B50023EA
:104610000193019B43F020030193019B61F38A13F3
:104620000193C268019B1361074B11690191013B22
:1046300002D001998906F8D40320FFF7C7FE0020B5
:1046400003B05DF804FB00BF410D030007B5002374
:104650000193019B43F010030193C268019B136116
:10466000074B11690191013B02D00199C906F8D4A9
:104670000320FFF7ABFE002003B05DF804FB00BF92
:10468000410D0300C26808B5D36801296FF35D735B
:104690006FF39E7302D143F0005302E009B943F077
:1046A0008043D3603220FFF7A3FE002008BDC3681B
:1046B000586900F0010080F001007047C368586934
:1046C0009B69184070470269136861F30103136026
:1046D0007047000010B5C26800236FF080414FF0B2
:1046E000FF34936151615460516108499161C1780F
:1046F000994208BF102343F44323916943F40063B4
:1047000043F008030B439361002010BD00080080B4
:10471000F8B5D0F80C31026900261E60136866F304
:10472000CC231360C37A012B044635461CD10321E8
:10473000FFF7C9FF8022C36862F31F465A6262F323
:104740000F064FF4807262F30F0562F31F454FF4BA
:1047500000729E62C3F8045162F30F056FF31F45A8
:10476000C3F80851C3F80C5110212046FFF74EFF43
:104770002046FFF76BFF226900234FF0FF311361E2
:10478000536191612169D36104F114051E46FF272D
:10479000627893420CD255F8042F10680028ACBF01
:1047A00000204FF090401060013316619760EFE7F2
:1047B000002304F150051E46FF27627893420CD275
:1047C00055F8042F10680028ACBF00204FF090402F
:1047D0001060013316619760EFE70B6943F4807353
:1047E0000B61E378012B01BF044B402262F3594374
:1047F0000B632046FFF76EFF0020F8BD03010100A8
:1048000003699B68C3F34103022B04D001D8012B39
:1048100003D10220704701207047032070470369CD
:10482000806999680268C1F3410102290ABF032126
:104830006FF30A0261F30A0202605A6842F480725E
:104840005A60002070474A780B78012A30B54FF043
:10485000000407D100EB830502FA03F3AD6963F3AB
:104860000F0407E000EB8302556D012202FA03F307
:1048700063F31F442B681A040DD48A6862F30A0399
:10488000CA7862F39343CA8862F3995343F0805322
:1048900043F400432B600269D3692343D3610020B2
:1048A00030BD30B54A780B780025012A2C4607D157
:1048B00000EB830102FA03F3896963F30F0407E055
:1048C00000EB8302516D012202FA03F363F31F44EC
:1048D00002696FF3CF350D60D36923EA0403D36116
:1048E000002030BDF8B54D780A784B69012D00EBFA
:1048F000820245D196693268346963F3120413B9B0
:1049000065F3DC440BE08F68DD19013DB5FBF7F57D
:1049100065F3DC44CD78012D08BF65F35E74346126
:10492000C478012C0C7805D100EB84040D69A469CE
:1049300065610AE0CD78012D07D033B10769012602
:104940007D6B06FA04F42C437C63CC78012C07D1F0
:104950000469A468E40554BF42F0005242F080525A
:104960000C7800EB840442F00442A4692260CA7807
:10497000012A36D10A78C9689BB2FFF765FD30E09D
:10498000566D8D68326834692BB965F312040123C2
:1049900063F3DC440AE02B44013BB3FBF5F363F320
:1049A000DC44C3F309036B4363F312043461C3783B
:1049B000012B05D10B780C6900EB83035B6D5C6107
:1049C000CB78012B06D14B7913B142F0005201E0B4
:1049D00042F080520B7800EB830042F00442436DBA
:1049E0001A600020F8BDF7B54F784D69012F3BD113
:1049F0008669346833690093DAB2C3F3074335B983
:104A000065F306028DF8002067F3C4030EE08F689B
:104A1000BD428CBF67F3060265F306028DF80020E5
:104A20004FF0010288BF4F6162F3C4038DF802307A
:104A3000009B3361C378012B05D10B780A6900EB29
:104A400083039B695A6144F004443460C378002BAB
:104A500032D14B69002B2FD000690978426B0123BA
:104A60008B401343436327E00B788F6800EB83038D
:104A70005E6D346833690093DAB2C3F3074305B15E
:104A80004F6167F306028DF80020012262F3C40330
:104A90008DF80230009B3361C378012B05D10B7870
:104AA0000A6900EB83035B6D5A610B7800EB8300AE
:104AB00044F00444436D1C60002003B0F0BD4B780B
:104AC000012B0B7800EB830006D182691368002B61
:104AD00004DA43F0804301E0426D136843F40013AD
:104AE0001360002070474B78012B0B78C97800EBDE
:104AF0008300A1F102010CBF8269426D1368012994
:104B00006FF3555398BF43F08053136000207047F4
:104B100003699869DB691840000C704700EB81015C
:104B20004B6D9A680369586910407047036998692A
:104B3000DB69184080B2704782B000230093C02325
:104B40008DF8033001224FF0000362F3C4038DF8A7
:104B5000023018238DF80030436D009A1A61C27834
:104B6000012A06D100F2CC5058611A684FF0802219
:104B70001A6002B07047837A63B103699B68DB07F0
:104B800008D5D0F80C31D0F80C216FF341036FF346
:104B900000031360704770B50446FFF779FC0023EB
:104BA0000121657884F8121184F8143104F21D1281
:104BB00018464026AB4202F128020FD202F8293CE7
:104BC00022F8233C02F8281C02F8260C42F8216C3B
:104BD00042F81D0C42F8150C0133EBE7002204F2F9
:104BE000753311464020AA4203F128030FD203F87F
:104BF000292C23F8232C03F8281C03F8261C43F83F
:104C0000210C43F81D1C43F8151C0132EBE720462C
:104C1000FFF7F4FC2046FFF7A3FC00212046FFF736
:104C200031FD2046FFF774FD2046BDE87040FFF7D8
:104C3000DEBC70B54EB201F07F04002E4FF02805A7
:104C4000B5BF05FB040105FB010101F58E7101F5FE
:104C50005D71E4B2002EB8BFCC80022BCB704FEA5E
:104C6000D67508BF00230C704D708A6008BF0B71A9
:104C7000FFF7E9FD002070BD4BB2002B10B54FF0DF
:104C8000280201F07F04B5BF02FB040102FB010111
:104C900001F58E7101F55D71DB0F0C704B70FFF744
:104CA00000FE002010BD70B501F07F05282606FB30
:104CB00005F40119044401F55D71C4F8883300233B
:104CC00084F87453C4F88023C4F88C3384F87533A3
:104CD000C37806FB0505012B08BFC4F8842395F8AB
:104CE000743313B9FFF77FFE01E0FFF7FBFD0020EF
:104CF00070BD70B501F07F0528246C430119044490
:104D00000126C4F82821C4F82C21002201F58E7157
:104D100084F81D6184F81C51C4F83421C4F8303182
:104D200015B9FFF760FE01E0FFF7DCFD002070BD64
:104D30004BB2002B10B54FF0280201F07F04B5BF35
:104D400002FB040102FB010101F58E7101F55D71A9
:104D50000122DB0F8A700C704B70FFF7B0FE002051
:104D600010BD38B54BB2002B01F07F054FF0280283
:104D7000B5BF02FB050102FB010101F58E7101F5D2
:104D80005D710024DB0F8C700D704B70FFF7ABFE74
:104D9000204638BD08B50B0604D501F07F01FFF7AA
:104DA00035FC01E0FFF752FC002008BD10B5026998
:104DB0000024136861F30A142343136010BD00003C
:104DC0002DE9F04F85B00446FFF771FC002800F094
:104DD000CB812046FFF772FCC0F3074A0AF00803B4
:104DE000009003F0FF00002B52D02046FFF790FE0A
:104DF000DFF87CB3074604F15406A1464FF00008E3
:104E0000002F44D0F9073BD55FFA88F319462046B6
:104E10000193FFF783FEC207054621D53268019B47
:104E200001259560E178A94207D11269C2F3120108
:104E3000D9F87C23521AC9F88C23DBF800201946D4
:104E4000126820469047E378012B09D1B8F1000F92
:104E500006D194F81131052B02D12046FFF76CFEE4
:104E6000AB0741BF022533682A469A60280707D559
:104E7000DBF8003020469B689847336808229A6028
:104E800008F101087F08043609F12809B8E7012074
:104E90001AF0040F78D02046FFF748FE04F11806F8
:104EA000804625464FF000094FF0010BB8F1000F86
:104EB00069D018F0010F5FD023695FFA89FA196988
:104EC0005A6B04EB8A02926992680A40D1070FD5A7
:104ED0005A6B0BFA09F122EA01025A633368C3F8EC
:104EE00008B0A34B1B6851465B682046984743E0D7
:104EF000D5F83031D5F834219A1AD5F824319342B7
:104F000028BF134603339B0801933368019A9B69BA
:104F10009BB293422DD9D5F83471D5F83031BB42CC
:104F200027D933B3DB1BD5F82471D5F828119F425C
:104F300028BF1F46FB1C9B0801935246BBB220466C
:104F4000FFF782FAD5F828313B44C5F82831D5F867
:104F500034311F44D5F83031C5F834719F42D4D371
:104F6000216995F81C314A6B0BFA03F322EA03031B
:104F70004B63336880229A6009F101094FEA5808AF
:104F80000436283592E70120009B002B19DAA37A1A
:104F900043B1D4F80C31D4F80C216FF341036FF313
:104FA000000313602269536823F001035360704BC0
:104FB0001B6820469B699847E3684FF000425A619E
:104FC0000120009BC3F3072632072DD500238DF85F
:104FD0000F3094F812318DF80F30654B1B68204666
:104FE0005B6998472369E2689B684FF400615161EF
:104FF000A27AC2B1DB0716D594F81531012B12D174
:105000009DF80F30032B0ED1D4F80C311A6842F002
:1050100001021A601A6842F003021A60554A1369C5
:1050200043F00603136101209DF800502F0708D5B7
:105030004F4B1B682046DB689847E36808225A619B
:105040000120E90638D5E3689A6922F010029A61D6
:105050001D6AC5F34343022B05F00F080DD0062B44
:1050600024D1082204F2CC5120462827FFF7FFF96B
:1050700007FB0847C5F30A1513E047F6F0732B400A
:10508000A3B1282707FB0847C5F30A152A46D7F816
:1050900080132046FFF7EBF9D7F880332B44C7F88D
:1050A0008033D7F88C331D44C7F88C53E26893697A
:1050B00043F0100393610120F20635D5226953684D
:1050C000002723F00103536039462046FFF79EFA7C
:1050D00004F114023B46FF216078834206D252F865
:1050E000040F8160D06B01338160F5E723690125EE
:1050F0004FF0FF3265F30F079A6165F31F470B22EC
:10510000DF615A611A611A686FF30A121A60204649
:10511000FFF712FDE3684FF480525A61144B1B688D
:1051200020461B6998472846B3061DD52046FFF741
:1051300076FBE3682046DD68FFF762FB032806D1B3
:105140000023A3704FF40073A380092304E001231C
:10515000A3704023A380052363F38D25E3684FF4F8
:105160000052DD6001205A6105B0BDE8F08F00BF3C
:105170002805002000ED00E0002070476D230B8023
:10518000004870478C0400200020704710B5812132
:105190000446FFF7FFFD084B1B78012B0CBF074AA5
:1051A000074A202381212046FFF7A3FD0320FFF7B4
:1051B00097F8002010BD00BFA80500203E12002077
:1051C0003C12002008B50220FFF78AF8002008BD35
:1051D00008B58121FFF750FD002008BD08B5202249
:1051E00001238121FFF725FD002008BD10B5064CE5
:1051F0002368012B06D1202300228121FFF779FDAE
:1052000002232360002010BD5C11002070B50C78D3
:1052100014F0600406460D461FD0202C4ED14C7869
:10522000012C06D0812C14D1CA88274900F0DCF962
:1052300044E0CA88002A43D0234900F0EDF9234B0B
:10524000EA881C70224B1A60AB88224A1B0A137032
:1052500034E000F039FA022433E04B780A2B0ED008
:105260000B2B11D0062B2CD14B881B0A212B03D1E1
:10527000CA88092A28BF09221749304601E0174980
:10528000012200F0B1F91CE08A78012A13D8134BEF
:105290001A601A68124B012A04D102201A60FFF723
:1052A00007F80EE002201C60FFF70EF8812130465F
:1052B000FFF770FD05E000F007FA02E0002400E0CF
:1052C0001446204670BD00BF1C1100200D110020A7
:1052D00018110020141100209E040020101100203D
:1052E0005C1100200020704710B5D0F8E835044666
:1052F0001B699847032384F81231002010BD08B5BC
:1053000090F8123180F81331042380F81231D0F86C
:10531000E835DB689847002008BD08B5D0F8E435CB
:10532000DB6903B19847002008BD08B5D0F8E43523
:105330001B6A9847002008BD08B5D0F8E4355B6AC1
:105340009847002008BD002310B5194604464022A6
:10535000FFF76FFC4022802100232046FFF769FC05
:10536000012384F81231D4F8E835A0785B689847B7
:10537000002010BD13B56946044600F083F99DF87E
:10538000001001F01F03012B0CD006D3022B0ED10D
:105390006946204600F0E8FA0EE06946204600F033
:1053A000A1F909E06946204600F0C6FA04E001F0E0
:1053B00080012046FFF7BCFC002002B010BD0000B9
:1053C00038B5044600293ED190F81131022B2ED178
:1053D000D0F83821D0F824319A4208D9D21AC0F82E
:1053E0003821D0F8281192B200F00EF91FE0D0F861
:1053F0003C21B2FBF3F503FB15255DB9934209D8B7
:10540000D0F840319A4205D22A4600F0FDF8C4F89F
:1054100040510CE0D4F8E435DB682BB194F812214C
:10542000032A01D120469847204600F01CF994F841
:105430001631012B10D1094A236912685A600023E2
:1054400084F8163108E0D0F8E4355B6923B190F8B0
:105450001221032A00D19847002038BD6011002096
:1054600010B5044661BB90F81131032B31D1D0F84F
:105470009033D0F87C23934215D9C178012908BF15
:10548000D0F88013A3EB020304BF8918C0F880137F
:105490009A4228BF1A46C0F8903392B2D0F88013CF
:1054A00000F0CAF815E0D0F8E4351B6923B190F894
:1054B0001221032A00D19847204600F0C5F808E0E1
:1054C000D0F8E4359B6923B190F81221032A00D16A
:1054D0009847002010BD2DE9F04104461646984635
:1054E0000D46069FFEF70AFF20462946C4F8E485CC
:1054F000C4F8E875C4F8EC65FFF74DFBD4F8E8355F
:105500001B6898472046BDE8F041FEF749BFD0F838
:10551000E43510B504461B689847D4F8E8359B6815
:105520009847002010BD08B5D0F8E4355B6898476F
:10553000002008BD12230B8000487047780500202A
:1055400004230B80004870477405002010B5044CFC
:1055500004480A46214600F067FA204610BD00BF05
:1055600070110020841603080A4608B5044908B9DA
:10557000044800E0044800F057FA014808BD00BFA5
:105580007011002097160308B81603080A4608B5DC
:10559000044908B9044800E0044800F045FA01480D
:1055A00008BD00BF70110020D9160308E6160308D5
:1055B00010B5044C04480A46214600F035FA20464E
:1055C00010BD00BF70110020F316030810B5044C85
:1055D00004480A46214600F027FA204610BD00BFC5
:1055E000701100200017030810B504461346C4F8D4
:1055F0003C21C4F83821022280F811210A460021FA
:10560000FFF777FB002010BD08B513460A460021BE
:10561000FFF76FFB002008BD10B504461346C4F821
:105620009423C4F89023032280F811210A46002114
:10563000FFF739FB002010BD08B513460A460021CC
:10564000FFF731FB002008BD10B5042380F81131AD
:10565000002304461A461946FFF74BFB2046FFF786
:105660006BFA002010BD10B5052380F8113100231E
:1056700004461A461946FFF716FB2046FFF75CFA68
:10568000002010BD90F8CC350B7090F8CD354B70E4
:1056900090F8CF2590F8CE3503EB02234B8090F89D
:1056A000D12590F8D03503EB02238B8090F8D325D9
:1056B00090F8D23503EB02239BB2CB80C0F8403187
:1056C000012380F81131704710B580210446FFF79F
:1056D0002FFB20460021FFF72BFB2046BDE81040A2
:1056E000FFF72ABA73B54B7804460D46092B00F232
:1056F0001381DFE813F0C400FF001101D70011018E
:105700006B000A001101B6008A004B881A0A013AA0
:10571000062A00F20181DFE812F0070019002500D7
:10572000FF00FF00FF00FF00D0F8EC3580781B6819
:105730000DF106019847EB88402B03D094F8123105
:10574000012B33D10823ADF806302FE0D0F8E43533
:1057500080789B6A0DF10601984702234370C4F8D4
:10576000F00523E0DBB2052B00F2D680DFE803F082
:1057700003070B0F1317D0F8EC355B6812E0D0F875
:10578000EC359B680EE0D0F8EC35DB680AE0D0F829
:10579000EC351B6906E0D0F8EC355B6902E0D0F827
:1057A000EC359B69A0780DF106019847BDF80620FD
:1057B000002A00F0B580EB88002B00F0B1809A42FF
:1057C00028BF1A46ADF80620014667E08B88002BFB
:1057D00040F0A280CB88002B40F09E8090F81231E0
:1057E0008E78032B06F07F0600F0968080F8146117
:1057F0003146FFF7DBFA2046FFF726FF0EB1022302
:1058000000E0012384F812318AE08978464E0129AC
:10581000317000F2818090F81231022B02D0032BFC
:1058200009D079E0002961D00121032380F810110B
:1058300080F8123111E039B9022380F8123180F872
:105840001011FFF770FE51E090F8101101294DD0B2
:10585000FFF769FE317884F810112046FFF757FEF4
:1058600044E0CA88012A57D190F81231022B04D0A3
:10587000032B51D100F5887110E02C490EE090F80F
:105880001231023B012B47D8294B00221A60D0F875
:1058900018210AB102221A60254902222046FFF788
:1058A000A3FE3DE04B88012B2DD0022B38D18B88F5
:1058B00013F0FF0F34D102691B0A013B5268042B1D
:1058C0000FD8DFE803F0030507090B00012306E00A
:1058D000022304E0032302E0042300E0052363F332
:1058E0000612144B1A60012384F816312046FFF784
:1058F000ABFE15E090F81231023B012B0CD84B881F
:10590000012B0DD10023C4F81831D4F8E435294611
:105910009B6820469847E9E729462046FFF7D4FED2
:10592000002002B070BD00BF6811002038120020B6
:10593000641100206011002038B590F81231032B5B
:1059400004460D460CD10B79012B09D8D0F8E4356B
:105950009B689847EB882BB92046FFF775FE01E05E
:10596000FFF7B2FE002038BD70B54E788A88012E50
:1059700004460D46D3B210D027D3032E50D190F851
:105980001221022A28D0032A48D14A889AB95E06F1
:1059900011D01946FFF7CCF90DE090F81221022A38
:1059A0001AD0032A3AD14A88002A39D1590608D098
:1059B0001946FFF7D6F9D4F8E43529469B68204606
:1059C00098472046FFF740FE2AE090F81251022D3A
:1059D00002D0032D06D021E05A0621D01946FFF748
:1059E000A7F91DE012F0800F4FF028000D4910D0EC
:1059F00003F07F0200FB024393F81E310BB1012339
:105A000000E000230B60022206492046FFF7ECFD70
:105A100006E000FB034393F87633EFE7FFF754FE0D
:105A2000002070BD6C11002030B5C0B105462B1AA6
:105A300015F8014BDBB2002CF9D15B000233138067
:105A40000B7003234B700138022310F8015F35B14E
:105A50005A1CD2B2CD540233DBB28C54F5E730BDC0
:105A60007047704770477047704770477047000035
:105A700040F0BF60024B40F40030D860704700BF78
:105A800000ED00E0C278037830B51AB3174A4578C4
:105A9000D168C943C1F30221C1F10402D2B205FAAF
:105AA00002F2D4B20F220A4181780A40224303F164
:105AB000604303F561431201D2B283F800230378F7
:105AC0000122590903F01F0302FA03F3084A42F8BE
:105AD000213030BD5A09012103F01F0301FA03F3FD
:105AE0002032034941F8223030BD00BF00ED00E014
:105AF00000E100E0436823F040720B6822F48072FA
:105B000013430A7943EA022343600A69CB681A43C4
